{
    "contractName": "Y28",
    "abi": [
        {
            "inputs": [
                {
                    "internalType": "address",
                    "name": "initialOwner",
                    "type": "address"
                },
                {
                    "internalType": "string",
                    "name": "tokenUri",
                    "type": "string"
                }
            ],
            "stateMutability": "nonpayable",
            "type": "constructor"
        },
        {
            "inputs": [
                {
                    "internalType": "address",
                    "name": "addr",
                    "type": "address"
                }
            ],
            "name": "AdminInvalidOwner",
            "type": "error"
        },
        {
            "inputs": [
                {
                    "internalType": "address",
                    "name": "addr",
                    "type": "address"
                }
            ],
            "name": "AdminUnauthorizedAccount",
            "type": "error"
        },
        {
            "inputs": [
                {
                    "internalType": "address",
                    "name": "addr",
                    "type": "address"
                }
            ],
            "name": "AlreadyOwner",
            "type": "error"
        },
        {
            "inputs": [
                {
                    "internalType": "address",
                    "name": "owner",
                    "type": "address"
                }
            ],
            "name": "OwnableInvalidOwner",
            "type": "error"
        },
        {
            "inputs": [
                {
                    "internalType": "address",
                    "name": "account",
                    "type": "address"
                }
            ],
            "name": "OwnableUnauthorizedAccount",
            "type": "error"
        },
        {
            "anonymous": false,
            "inputs": [
                {
                    "indexed": true,
                    "internalType": "address",
                    "name": "owner",
                    "type": "address"
                },
                {
                    "indexed": true,
                    "internalType": "address",
                    "name": "approved",
                    "type": "address"
                },
                {
                    "indexed": true,
                    "internalType": "uint256",
                    "name": "tokenId",
                    "type": "uint256"
                }
            ],
            "name": "Approval",
            "type": "event"
        },
        {
            "anonymous": false,
            "inputs": [
                {
                    "indexed": true,
                    "internalType": "address",
                    "name": "owner",
                    "type": "address"
                },
                {
                    "indexed": true,
                    "internalType": "address",
                    "name": "operator",
                    "type": "address"
                },
                {
                    "indexed": false,
                    "internalType": "bool",
                    "name": "approved",
                    "type": "bool"
                }
            ],
            "name": "ApprovalForAll",
            "type": "event"
        },
        {
            "anonymous": false,
            "inputs": [
                {
                    "indexed": false,
                    "internalType": "uint256",
                    "name": "_fromTokenId",
                    "type": "uint256"
                },
                {
                    "indexed": false,
                    "internalType": "uint256",
                    "name": "_toTokenId",
                    "type": "uint256"
                }
            ],
            "name": "BatchMetadataUpdate",
            "type": "event"
        },
        {
            "anonymous": false,
            "inputs": [
                {
                    "indexed": false,
                    "internalType": "uint256",
                    "name": "_tokenId",
                    "type": "uint256"
                }
            ],
            "name": "MetadataUpdate",
            "type": "event"
        },
        {
            "anonymous": false,
            "inputs": [
                {
                    "indexed": true,
                    "internalType": "address",
                    "name": "previousOwner",
                    "type": "address"
                },
                {
                    "indexed": true,
                    "internalType": "address",
                    "name": "newOwner",
                    "type": "address"
                }
            ],
            "name": "OwnershipTransferred",
            "type": "event"
        },
        {
            "anonymous": false,
            "inputs": [
                {
                    "indexed": true,
                    "internalType": "address",
                    "name": "from",
                    "type": "address"
                },
                {
                    "indexed": true,
                    "internalType": "address",
                    "name": "to",
                    "type": "address"
                },
                {
                    "indexed": true,
                    "internalType": "uint256",
                    "name": "tokenId",
                    "type": "uint256"
                }
            ],
            "name": "Transfer",
            "type": "event"
        },
        {
            "inputs": [
                {
                    "internalType": "address",
                    "name": "to",
                    "type": "address"
                },
                {
                    "internalType": "uint256",
                    "name": "tokenId",
                    "type": "uint256"
                }
            ],
            "name": "approve",
            "outputs": [],
            "stateMutability": "nonpayable",
            "type": "function"
        },
        {
            "inputs": [
                {
                    "internalType": "address",
                    "name": "owner",
                    "type": "address"
                }
            ],
            "name": "balanceOf",
            "outputs": [
                {
                    "internalType": "uint256",
                    "name": "",
                    "type": "uint256"
                }
            ],
            "stateMutability": "view",
            "type": "function"
        },
        {
            "inputs": [
                {
                    "internalType": "address",
                    "name": "sender",
                    "type": "address"
                }
            ],
            "name": "checkAdmin",
            "outputs": [
                {
                    "internalType": "bool",
                    "name": "",
                    "type": "bool"
                }
            ],
            "stateMutability": "view",
            "type": "function"
        },
        {
            "inputs": [
                {
                    "internalType": "uint256",
                    "name": "tokenId",
                    "type": "uint256"
                }
            ],
            "name": "getApproved",
            "outputs": [
                {
                    "internalType": "address",
                    "name": "",
                    "type": "address"
                }
            ],
            "stateMutability": "view",
            "type": "function"
        },
        {
            "inputs": [],
            "name": "getNextId",
            "outputs": [
                {
                    "internalType": "uint256",
                    "name": "",
                    "type": "uint256"
                }
            ],
            "stateMutability": "view",
            "type": "function"
        },
        {
            "inputs": [
                {
                    "internalType": "address",
                    "name": "owner",
                    "type": "address"
                },
                {
                    "internalType": "address",
                    "name": "operator",
                    "type": "address"
                }
            ],
            "name": "isApprovedForAll",
            "outputs": [
                {
                    "internalType": "bool",
                    "name": "",
                    "type": "bool"
                }
            ],
            "stateMutability": "view",
            "type": "function"
        },
        {
            "inputs": [],
            "name": "name",
            "outputs": [
                {
                    "internalType": "string",
                    "name": "",
                    "type": "string"
                }
            ],
            "stateMutability": "view",
            "type": "function"
        },
        {
            "inputs": [],
            "name": "owner",
            "outputs": [
                {
                    "internalType": "address",
                    "name": "",
                    "type": "address"
                }
            ],
            "stateMutability": "view",
            "type": "function"
        },
        {
            "inputs": [
                {
                    "internalType": "uint256",
                    "name": "tokenId",
                    "type": "uint256"
                }
            ],
            "name": "ownerOf",
            "outputs": [
                {
                    "internalType": "address",
                    "name": "",
                    "type": "address"
                }
            ],
            "stateMutability": "view",
            "type": "function"
        },
        {
            "inputs": [],
            "name": "renounceOwnership",
            "outputs": [],
            "stateMutability": "nonpayable",
            "type": "function"
        },
        {
            "inputs": [
                {
                    "internalType": "uint256",
                    "name": "tokenId",
                    "type": "uint256"
                },
                {
                    "internalType": "uint256",
                    "name": "deadline",
                    "type": "uint256"
                },
                {
                    "internalType": "uint256[][]",
                    "name": "details",
                    "type": "uint256[][]"
                }
            ],
            "name": "requestLoan",
            "outputs": [
                {
                    "internalType": "bytes32",
                    "name": "",
                    "type": "bytes32"
                }
            ],
            "stateMutability": "nonpayable",
            "type": "function"
        },
        {
            "inputs": [
                {
                    "internalType": "address",
                    "name": "to",
                    "type": "address"
                }
            ],
            "name": "safeMintAccessToken",
            "outputs": [],
            "stateMutability": "nonpayable",
            "type": "function"
        },
        {
            "inputs": [
                {
                    "internalType": "address",
                    "name": "to",
                    "type": "address"
                }
            ],
            "name": "safeMintAdminAccessToken",
            "outputs": [],
            "stateMutability": "nonpayable",
            "type": "function"
        },
        {
            "inputs": [
                {
                    "internalType": "address",
                    "name": "from",
                    "type": "address"
                },
                {
                    "internalType": "address",
                    "name": "to",
                    "type": "address"
                },
                {
                    "internalType": "uint256",
                    "name": "tokenId",
                    "type": "uint256"
                }
            ],
            "name": "safeTransferFrom",
            "outputs": [],
            "stateMutability": "nonpayable",
            "type": "function"
        },
        {
            "inputs": [
                {
                    "internalType": "address",
                    "name": "from",
                    "type": "address"
                },
                {
                    "internalType": "address",
                    "name": "to",
                    "type": "address"
                },
                {
                    "internalType": "uint256",
                    "name": "tokenId",
                    "type": "uint256"
                },
                {
                    "internalType": "bytes",
                    "name": "data",
                    "type": "bytes"
                }
            ],
            "name": "safeTransferFrom",
            "outputs": [],
            "stateMutability": "nonpayable",
            "type": "function"
        },
        {
            "inputs": [
                {
                    "internalType": "address",
                    "name": "operator",
                    "type": "address"
                },
                {
                    "internalType": "bool",
                    "name": "approved",
                    "type": "bool"
                }
            ],
            "name": "setApprovalForAll",
            "outputs": [],
            "stateMutability": "nonpayable",
            "type": "function"
        },
        {
            "inputs": [
                {
                    "internalType": "bytes4",
                    "name": "interfaceId",
                    "type": "bytes4"
                }
            ],
            "name": "supportsInterface",
            "outputs": [
                {
                    "internalType": "bool",
                    "name": "",
                    "type": "bool"
                }
            ],
            "stateMutability": "view",
            "type": "function"
        },
        {
            "inputs": [],
            "name": "symbol",
            "outputs": [
                {
                    "internalType": "string",
                    "name": "",
                    "type": "string"
                }
            ],
            "stateMutability": "view",
            "type": "function"
        },
        {
            "inputs": [
                {
                    "internalType": "uint256",
                    "name": "index",
                    "type": "uint256"
                }
            ],
            "name": "tokenByIndex",
            "outputs": [
                {
                    "internalType": "uint256",
                    "name": "",
                    "type": "uint256"
                }
            ],
            "stateMutability": "view",
            "type": "function"
        },
        {
            "inputs": [
                {
                    "internalType": "address",
                    "name": "owner",
                    "type": "address"
                },
                {
                    "internalType": "uint256",
                    "name": "index",
                    "type": "uint256"
                }
            ],
            "name": "tokenOfOwnerByIndex",
            "outputs": [
                {
                    "internalType": "uint256",
                    "name": "",
                    "type": "uint256"
                }
            ],
            "stateMutability": "view",
            "type": "function"
        },
        {
            "inputs": [
                {
                    "internalType": "uint256",
                    "name": "tokenId",
                    "type": "uint256"
                }
            ],
            "name": "tokenURI",
            "outputs": [
                {
                    "internalType": "string",
                    "name": "",
                    "type": "string"
                }
            ],
            "stateMutability": "view",
            "type": "function"
        },
        {
            "inputs": [],
            "name": "totalSupply",
            "outputs": [
                {
                    "internalType": "uint256",
                    "name": "",
                    "type": "uint256"
                }
            ],
            "stateMutability": "view",
            "type": "function"
        },
        {
            "inputs": [
                {
                    "internalType": "address",
                    "name": "from",
                    "type": "address"
                },
                {
                    "internalType": "address",
                    "name": "to",
                    "type": "address"
                },
                {
                    "internalType": "uint256",
                    "name": "tokenId",
                    "type": "uint256"
                }
            ],
            "name": "transferFrom",
            "outputs": [],
            "stateMutability": "nonpayable",
            "type": "function"
        },
        {
            "inputs": [
                {
                    "internalType": "address",
                    "name": "newOwner",
                    "type": "address"
                }
            ],
            "name": "transferOwnership",
            "outputs": [],
            "stateMutability": "nonpayable",
            "type": "function"
        }
    ],
    "bytecode": "60806040523480156200001157600080fd5b5060405162002e4238038062002e428339810160408190526200003491620009fc565b8181604051806040016040528060048152602001630b25a64760e31b815250604051806040016040528060038152602001620b264760eb1b81525081818560006001600160a01b0316816001600160a01b031603620000ae57604051631e4fbdf760e01b8152600060048201526024015b60405180910390fd5b620000b9816200013e565b506001620000c8838262000b65565b506002620000d7828262000b65565b5050506001600160a01b0384166200010657604051631e1f26ff60e21b815260006004820152602401620000a5565b6000600c55600d62000119848262000b65565b5062000125846200013e565b620001328460016200018e565b50505050505062000d0e565b600080546001600160a01b038381166001600160a01b0319831681178455604051919092169283917f8be0079c531659141344cd1fd0a4f28419497f9722a3daafe3b4186f6b6457e09190a35050565b6200019a8282620001be565b620001ba816000908152600e60205260409020805460ff19166001179055565b5050565b620001ca828262000276565b6200026981600d8054620001de9062000ad7565b80601f01602080910402602001604051908101604052809291908181526020018280546200020c9062000ad7565b80156200025d5780601f1062000231576101008083540402835291602001916200025d565b820191906000526020600020905b8154815290600101906020018083116200023f57829003601f168201915b50506200029892505050565b5050600c80546001019055565b620001ba828260405180602001604052806000815250620002ea60201b60201c565b6000828152600760205260409020620002b2828262000b65565b506040518281527ff8e1a15aba9398e019f0b49df1a4fde98ee17ae345cb5f6b5e2c27f5033e8ce79060200160405180910390a15050565b620002f6838362000362565b62000305600084848462000503565b6200035d5760405162461bcd60e51b8152602060048201526032602482015260008051602062002e2283398151915260448201527131b2b4bb32b91034b6b83632b6b2b73a32b960711b6064820152608401620000a5565b505050565b6001600160a01b038216620003ba5760405162461bcd60e51b815260206004820181905260248201527f4552433732313a206d696e7420746f20746865207a65726f20616464726573736044820152606401620000a5565b6000818152600360205260409020546001600160a01b031615620004215760405162461bcd60e51b815260206004820152601c60248201527f4552433732313a20746f6b656e20616c7265616479206d696e746564000000006044820152606401620000a5565b620004316000838360016200064b565b6000818152600360205260409020546001600160a01b031615620004985760405162461bcd60e51b815260206004820152601c60248201527f4552433732313a20746f6b656e20616c7265616479206d696e746564000000006044820152606401620000a5565b6001600160a01b038216600081815260046020908152604080832080546001019055848352600390915280822080546001600160a01b0319168417905551839291907fddf252ad1be2c89b69c2b068fc378daa952ba7f163c4a11628f55a4df523b3ef908290a45050565b60006001600160a01b0384163b156200063f57604051630a85bd0160e11b81526001600160a01b0385169063150b7a02906200054a90339089908890889060040162000c31565b6020604051808303816000875af192505050801562000588575060408051601f3d908101601f19168201909252620005859181019062000c87565b60015b62000624573d808015620005b9576040519150601f19603f3d011682016040523d82523d6000602084013e620005be565b606091505b5080516000036200061c5760405162461bcd60e51b8152602060048201526032602482015260008051602062002e2283398151915260448201527131b2b4bb32b91034b6b83632b6b2b73a32b960711b6064820152608401620000a5565b805181602001fd5b6001600160e01b031916630a85bd0160e11b14905062000643565b5060015b949350505050565b6001811115620006c45760405162461bcd60e51b815260206004820152603560248201527f455243373231456e756d657261626c653a20636f6e736563757469766520747260448201527f616e7366657273206e6f7420737570706f7274656400000000000000000000006064820152608401620000a5565b816001600160a01b03851662000723576200071d81600a80546000838152600b60205260408120829055600182018355919091527fc65a7bb8d6351c1cf70c95a316cc6a92839c986682d98bc35f958f4883f9d2a80155565b62000749565b836001600160a01b0316856001600160a01b031614620007495762000749858262000796565b6001600160a01b0384166200076957620007638162000838565b6200078f565b846001600160a01b0316846001600160a01b0316146200078f576200078f8482620008f2565b5050505050565b60006001620007a58462000938565b620007b1919062000cba565b60008381526009602052604090205490915080821462000805576001600160a01b03841660009081526008602090815260408083208584528252808320548484528184208190558352600990915290208190555b5060009182526009602090815260408084208490556001600160a01b039094168352600881528383209183525290812055565b600a546000906200084c9060019062000cba565b6000838152600b6020526040812054600a805493945090928490811062000877576200087762000ce2565b9060005260206000200154905080600a83815481106200089b576200089b62000ce2565b6000918252602080832090910192909255828152600b9091526040808220849055858252812055600a805480620008d657620008d662000cf8565b6001900381819060005260206000200160009055905550505050565b6000620008ff8362000938565b6001600160a01b039093166000908152600860209081526040808320868452825280832085905593825260099052919091209190915550565b60006001600160a01b038216620009a45760405162461bcd60e51b815260206004820152602960248201527f4552433732313a2061646472657373207a65726f206973206e6f7420612076616044820152683634b21037bbb732b960b91b6064820152608401620000a5565b506001600160a01b031660009081526004602052604090205490565b634e487b7160e01b600052604160045260246000fd5b60005b83811015620009f3578181015183820152602001620009d9565b50506000910152565b6000806040838503121562000a1057600080fd5b82516001600160a01b038116811462000a2857600080fd5b60208401519092506001600160401b038082111562000a4657600080fd5b818501915085601f83011262000a5b57600080fd5b81518181111562000a705762000a70620009c0565b604051601f8201601f19908116603f0116810190838211818310171562000a9b5762000a9b620009c0565b8160405282815288602084870101111562000ab557600080fd5b62000ac8836020830160208801620009d6565b80955050505050509250929050565b600181811c9082168062000aec57607f821691505b60208210810362000b0d57634e487b7160e01b600052602260045260246000fd5b50919050565b601f8211156200035d57600081815260208120601f850160051c8101602086101562000b3c5750805b601f850160051c820191505b8181101562000b5d5782815560010162000b48565b505050505050565b81516001600160401b0381111562000b815762000b81620009c0565b62000b998162000b92845462000ad7565b8462000b13565b602080601f83116001811462000bd1576000841562000bb85750858301515b600019600386901b1c1916600185901b17855562000b5d565b600085815260208120601f198616915b8281101562000c025788860151825594840194600190910190840162000be1565b508582101562000c215787850151600019600388901b60f8161c191681555b5050505050600190811b01905550565b600060018060a01b03808716835280861660208401525083604083015260806060830152825180608084015262000c708160a0850160208701620009d6565b601f01601f19169190910160a00195945050505050565b60006020828403121562000c9a57600080fd5b81516001600160e01b03198116811462000cb357600080fd5b9392505050565b8181038181111562000cdc57634e487b7160e01b600052601160045260246000fd5b92915050565b634e487b7160e01b600052603260045260246000fd5b634e487b7160e01b600052603160045260246000fd5b6121048062000d1e6000396000f3fe608060405234801561001057600080fd5b50600436106101585760003560e01c806363c48862116100c3578063a22cb4651161007c578063a22cb465146102cf578063b88d4fde146102e2578063bc968326146102f5578063c87b56dd146102fd578063e985e9c514610310578063f2fde38b1461034c57600080fd5b806363c488621461027557806370a0823114610288578063715018a61461029b5780638da5cb5b146102a35780639026dee8146102b457806395d89b41146102c757600080fd5b806323b872dd1161011557806323b872dd146102035780632b77a3e7146102165780632f745c591461022957806342842e0e1461023c5780634f6ccce71461024f5780636352211e1461026257600080fd5b806301ffc9a71461015d57806306fdde0314610185578063081812fc1461019a578063095ea7b3146101c5578063178da21a146101da57806318160ddd146101fb575b600080fd5b61017061016b366004611972565b61035f565b60405190151581526020015b60405180910390f35b61018d610370565b60405161017c91906119df565b6101ad6101a83660046119f2565b610402565b6040516001600160a01b03909116815260200161017c565b6101d86101d3366004611a27565b610429565b005b6101ed6101e8366004611abc565b610543565b60405190815260200161017c565b600a546101ed565b6101d8610211366004611bde565b61065a565b6101d8610224366004611c1a565b61068b565b6101ed610237366004611a27565b61069f565b6101d861024a366004611bde565b610735565b6101ed61025d3660046119f2565b610750565b6101ad6102703660046119f2565b6107e3565b6101d8610283366004611c1a565b610843565b6101ed610296366004611c1a565b610881565b6101d8610907565b6000546001600160a01b03166101ad565b6101706102c2366004611c1a565b61091b565b61018d610931565b6101d86102dd366004611c35565b610940565b6101d86102f0366004611c71565b61094f565b6101ed610987565b61018d61030b3660046119f2565b61099d565b61017061031e366004611d31565b6001600160a01b03918216600090815260066020908152604080832093909416825291909152205460ff1690565b6101d861035a366004611c1a565b6109a8565b600061036a826109e3565b92915050565b60606001805461037f90611d64565b80601f01602080910402602001604051908101604052809291908181526020018280546103ab90611d64565b80156103f85780601f106103cd576101008083540402835291602001916103f8565b820191906000526020600020905b8154815290600101906020018083116103db57829003601f168201915b5050505050905090565b600061040d82610a08565b506000908152600560205260409020546001600160a01b031690565b6000610434826107e3565b9050806001600160a01b0316836001600160a01b0316036104a65760405162461bcd60e51b815260206004820152602160248201527f4552433732313a20617070726f76616c20746f2063757272656e74206f776e656044820152603960f91b60648201526084015b60405180910390fd5b336001600160a01b03821614806104c257506104c2813361031e565b6105345760405162461bcd60e51b815260206004820152603d60248201527f4552433732313a20617070726f76652063616c6c6572206973206e6f7420746f60448201527f6b656e206f776e6572206f7220617070726f76656420666f7220616c6c000000606482015260840161049d565b61053e8383610a67565b505050565b60008033610552600143611db4565b60405160609290921b6bffffffffffffffffffffffff1916602083015240603482015260540160405160208183030381529060405261059090611dc7565b60408051608081810190925291901c80825291506020810160008152602080820187905260409182018690526000888152600f825291909120825181546fffffffffffffffffffffffffffffffff9091166001600160801b0319821681178355928401519192839170ffffffffffffffffffffffffffffffffff191617600160801b83600281111561062457610624611dfe565b0217905550604082015160018201556060820151805161064e916002840191602090910190611868565b50905050509392505050565b6106643382610ad5565b6106805760405162461bcd60e51b815260040161049d90611e14565b61053e838383610b54565b61069c81610697610987565b610cc5565b50565b60006106aa83610881565b821061070c5760405162461bcd60e51b815260206004820152602b60248201527f455243373231456e756d657261626c653a206f776e657220696e646578206f7560448201526a74206f6620626f756e647360a81b606482015260840161049d565b506001600160a01b03919091166000908152600860209081526040808320938352929052205490565b61053e8383836040518060200160405280600081525061094f565b600061075b600a5490565b82106107be5760405162461bcd60e51b815260206004820152602c60248201527f455243373231456e756d657261626c653a20676c6f62616c20696e646578206f60448201526b7574206f6620626f756e647360a01b606482015260840161049d565b600a82815481106107d1576107d1611e61565b90600052602060002001549050919050565b6000818152600360205260408120546001600160a01b03168061036a5760405162461bcd60e51b8152602060048201526018602482015277115490cdcc8c4e881a5b9d985b1a59081d1bdad95b88125160421b604482015260640161049d565b61084c3361091b565b15156000036108705760405163342e52ad60e21b815233600482015260240161049d565b61069c8161087c610987565b610d70565b60006001600160a01b0382166108eb5760405162461bcd60e51b815260206004820152602960248201527f4552433732313a2061646472657373207a65726f206973206e6f7420612076616044820152683634b21037bbb732b960b91b606482015260840161049d565b506001600160a01b031660009081526004602052604090205490565b61090f610d99565b6109196000610dc6565b565b600061092882600061069f565b60011492915050565b60606002805461037f90611d64565b61094b338383610e16565b5050565b6109593383610ad5565b6109755760405162461bcd60e51b815260040161049d90611e14565b61098184848484610ee4565b50505050565b6000600c5460016109989190611e77565b905090565b606061036a82610f17565b6109b0610d99565b6001600160a01b0381166109da57604051631e4fbdf760e01b81526000600482015260240161049d565b61069c81610dc6565b60006001600160e01b0319821663780e9d6360e01b148061036a575061036a82611019565b6000818152600360205260409020546001600160a01b031661069c5760405162461bcd60e51b8152602060048201526018602482015277115490cdcc8c4e881a5b9d985b1a59081d1bdad95b88125160421b604482015260640161049d565b600081815260056020526040902080546001600160a01b0319166001600160a01b0384169081179091558190610a9c826107e3565b6001600160a01b03167f8c5be1e5ebec7d5bd14f71427d1e84f3dd0314c0f7b2291e5b200ac8c7c3b92560405160405180910390a45050565b600080610ae1836107e3565b9050806001600160a01b0316846001600160a01b03161480610b2857506001600160a01b0380821660009081526006602090815260408083209388168352929052205460ff165b80610b4c5750836001600160a01b0316610b4184610402565b6001600160a01b0316145b949350505050565b826001600160a01b0316610b67826107e3565b6001600160a01b031614610b8d5760405162461bcd60e51b815260040161049d90611e8a565b6001600160a01b038216610bef5760405162461bcd60e51b8152602060048201526024808201527f4552433732313a207472616e7366657220746f20746865207a65726f206164646044820152637265737360e01b606482015260840161049d565b610bfc838383600161103e565b826001600160a01b0316610c0f826107e3565b6001600160a01b031614610c355760405162461bcd60e51b815260040161049d90611e8a565b600081815260056020908152604080832080546001600160a01b03199081169091556001600160a01b0387811680865260048552838620805460001901905590871680865283862080546001019055868652600390945282852080549092168417909155905184937fddf252ad1be2c89b69c2b068fc378daa952ba7f163c4a11628f55a4df523b3ef91a4505050565b610ccf8282611172565b610d6381600d8054610ce090611d64565b80601f0160208091040260200160405190810160405280929190818152602001828054610d0c90611d64565b8015610d595780601f10610d2e57610100808354040283529160200191610d59565b820191906000526020600020905b815481529060010190602001808311610d3c57829003601f168201915b505050505061118c565b5050600c80546001019055565b610d7a8282610cc5565b61094b816000908152600e60205260409020805460ff19166001179055565b6000546001600160a01b031633146109195760405163118cdaa760e01b815233600482015260240161049d565b600080546001600160a01b038381166001600160a01b0319831681178455604051919092169283917f8be0079c531659141344cd1fd0a4f28419497f9722a3daafe3b4186f6b6457e09190a35050565b816001600160a01b0316836001600160a01b031603610e775760405162461bcd60e51b815260206004820152601960248201527f4552433732313a20617070726f766520746f2063616c6c657200000000000000604482015260640161049d565b6001600160a01b03838116600081815260066020908152604080832094871680845294825291829020805460ff191686151590811790915591519182527f17307eab39ab6107e8899845ad3d59bd9653f200f220920489ca2b5937696c31910160405180910390a3505050565b610eef848484610b54565b610efb848484846111dc565b6109815760405162461bcd60e51b815260040161049d90611ecf565b600081815260076020526040812080546060929190610f3590611d64565b80601f0160208091040260200160405190810160405280929190818152602001828054610f6190611d64565b8015610fae5780601f10610f8357610100808354040283529160200191610fae565b820191906000526020600020905b815481529060010190602001808311610f9157829003601f168201915b505050505090506000610fcc60408051602081019091526000815290565b90508051600003610fde575092915050565b815115611010578082604051602001610ff8929190611f21565b60405160208183030381529060405292505050919050565b610b4c846112dd565b60006001600160e01b03198216632483248360e11b148061036a575061036a82611351565b60018111156110ad5760405162461bcd60e51b815260206004820152603560248201527f455243373231456e756d657261626c653a20636f6e7365637574697665207472604482015274185b9cd9995c9cc81b9bdd081cdd5c1c1bdc9d1959605a1b606482015260840161049d565b816001600160a01b0385166111095761110481600a80546000838152600b60205260408120829055600182018355919091527fc65a7bb8d6351c1cf70c95a316cc6a92839c986682d98bc35f958f4883f9d2a80155565b61112c565b836001600160a01b0316856001600160a01b03161461112c5761112c85826113a1565b6001600160a01b038416611148576111438161143e565b61116b565b846001600160a01b0316846001600160a01b03161461116b5761116b84826114ed565b5050505050565b61094b828260405180602001604052806000815250611531565b60008281526007602052604090206111a48282611f9e565b506040518281527ff8e1a15aba9398e019f0b49df1a4fde98ee17ae345cb5f6b5e2c27f5033e8ce79060200160405180910390a15050565b60006001600160a01b0384163b156112d257604051630a85bd0160e11b81526001600160a01b0385169063150b7a029061122090339089908890889060040161205e565b6020604051808303816000875af192505050801561125b575060408051601f3d908101601f191682019092526112589181019061209b565b60015b6112b8573d808015611289576040519150601f19603f3d011682016040523d82523d6000602084013e61128e565b606091505b5080516000036112b05760405162461bcd60e51b815260040161049d90611ecf565b805181602001fd5b6001600160e01b031916630a85bd0160e11b149050610b4c565b506001949350505050565b60606112e882610a08565b60006112ff60408051602081019091526000815290565b9050600081511161131f576040518060200160405280600081525061134a565b8061132984611564565b60405160200161133a929190611f21565b6040516020818303038152906040525b9392505050565b60006001600160e01b031982166380ac58cd60e01b148061138257506001600160e01b03198216635b5e139f60e01b145b8061036a57506301ffc9a760e01b6001600160e01b031983161461036a565b600060016113ae84610881565b6113b89190611db4565b60008381526009602052604090205490915080821461140b576001600160a01b03841660009081526008602090815260408083208584528252808320548484528184208190558352600990915290208190555b5060009182526009602090815260408084208490556001600160a01b039094168352600881528383209183525290812055565b600a5460009061145090600190611db4565b6000838152600b6020526040812054600a805493945090928490811061147857611478611e61565b9060005260206000200154905080600a838154811061149957611499611e61565b6000918252602080832090910192909255828152600b9091526040808220849055858252812055600a8054806114d1576114d16120b8565b6001900381819060005260206000200160009055905550505050565b60006114f883610881565b6001600160a01b039093166000908152600860209081526040808320868452825280832085905593825260099052919091209190915550565b61153b83836115f7565b61154860008484846111dc565b61053e5760405162461bcd60e51b815260040161049d90611ecf565b6060600061157183611790565b600101905060008167ffffffffffffffff81111561159157611591611a51565b6040519080825280601f01601f1916602001820160405280156115bb576020820181803683370190505b5090508181016020015b600019016f181899199a1a9b1b9c1cb0b131b232b360811b600a86061a8153600a85049450846115c557509392505050565b6001600160a01b03821661164d5760405162461bcd60e51b815260206004820181905260248201527f4552433732313a206d696e7420746f20746865207a65726f2061646472657373604482015260640161049d565b6000818152600360205260409020546001600160a01b0316156116b25760405162461bcd60e51b815260206004820152601c60248201527f4552433732313a20746f6b656e20616c7265616479206d696e74656400000000604482015260640161049d565b6116c060008383600161103e565b6000818152600360205260409020546001600160a01b0316156117255760405162461bcd60e51b815260206004820152601c60248201527f4552433732313a20746f6b656e20616c7265616479206d696e74656400000000604482015260640161049d565b6001600160a01b038216600081815260046020908152604080832080546001019055848352600390915280822080546001600160a01b0319168417905551839291907fddf252ad1be2c89b69c2b068fc378daa952ba7f163c4a11628f55a4df523b3ef908290a45050565b60008072184f03e93ff9f4daa797ed6e38ed64bf6a1f0160401b83106117cf5772184f03e93ff9f4daa797ed6e38ed64bf6a1f0160401b830492506040015b6d04ee2d6d415b85acef810000000083106117fb576d04ee2d6d415b85acef8100000000830492506020015b662386f26fc10000831061181957662386f26fc10000830492506010015b6305f5e1008310611831576305f5e100830492506008015b612710831061184557612710830492506004015b60648310611857576064830492506002015b600a831061036a5760010192915050565b8280548282559060005260206000209081019282156118b5579160200282015b828111156118b557825180516118a59184916020909101906118c5565b5091602001919060010190611888565b506118c192915061190c565b5090565b828054828255906000526020600020908101928215611900579160200282015b828111156119005782518255916020019190600101906118e5565b506118c1929150611929565b808211156118c1576000611920828261193e565b5060010161190c565b5b808211156118c1576000815560010161192a565b508054600082559060005260206000209081019061069c9190611929565b6001600160e01b03198116811461069c57600080fd5b60006020828403121561198457600080fd5b813561134a8161195c565b60005b838110156119aa578181015183820152602001611992565b50506000910152565b600081518084526119cb81602086016020860161198f565b601f01601f19169290920160200192915050565b60208152600061134a60208301846119b3565b600060208284031215611a0457600080fd5b5035919050565b80356001600160a01b0381168114611a2257600080fd5b919050565b60008060408385031215611a3a57600080fd5b611a4383611a0b565b946020939093013593505050565b634e487b7160e01b600052604160045260246000fd5b604051601f8201601f1916810167ffffffffffffffff81118282101715611a9057611a90611a51565b604052919050565b600067ffffffffffffffff821115611ab257611ab2611a51565b5060051b60200190565b600080600060608486031215611ad157600080fd5b833592506020808501359250604085013567ffffffffffffffff80821115611af857600080fd5b818701915087601f830112611b0c57600080fd5b8135611b1f611b1a82611a98565b611a67565b81815260059190911b8301840190848101908a831115611b3e57600080fd5b8585015b83811015611bcd57803585811115611b5a5760008081fd5b8601603f81018d13611b6c5760008081fd5b87810135611b7c611b1a82611a98565b81815260059190911b820160400190898101908f831115611b9d5760008081fd5b6040840193505b82841015611bbd5783358252928a0192908a0190611ba4565b8652505050918601918601611b42565b508096505050505050509250925092565b600080600060608486031215611bf357600080fd5b611bfc84611a0b565b9250611c0a60208501611a0b565b9150604084013590509250925092565b600060208284031215611c2c57600080fd5b61134a82611a0b565b60008060408385031215611c4857600080fd5b611c5183611a0b565b915060208301358015158114611c6657600080fd5b809150509250929050565b60008060008060808587031215611c8757600080fd5b611c9085611a0b565b93506020611c9f818701611a0b565b935060408601359250606086013567ffffffffffffffff80821115611cc357600080fd5b818801915088601f830112611cd757600080fd5b813581811115611ce957611ce9611a51565b611cfb601f8201601f19168501611a67565b91508082528984828501011115611d1157600080fd5b808484018584013760008482840101525080935050505092959194509250565b60008060408385031215611d4457600080fd5b611d4d83611a0b565b9150611d5b60208401611a0b565b90509250929050565b600181811c90821680611d7857607f821691505b602082108103611d9857634e487b7160e01b600052602260045260246000fd5b50919050565b634e487b7160e01b600052601160045260246000fd5b8181038181111561036a5761036a611d9e565b805160208201516001600160801b03198082169291906010831015611df65780818460100360031b1b83161693505b505050919050565b634e487b7160e01b600052602160045260246000fd5b6020808252602d908201527f4552433732313a2063616c6c6572206973206e6f7420746f6b656e206f776e6560408201526c1c881bdc88185c1c1c9bdd9959609a1b606082015260800190565b634e487b7160e01b600052603260045260246000fd5b8082018082111561036a5761036a611d9e565b60208082526025908201527f4552433732313a207472616e736665722066726f6d20696e636f72726563742060408201526437bbb732b960d91b606082015260800190565b60208082526032908201527f4552433732313a207472616e7366657220746f206e6f6e20455243373231526560408201527131b2b4bb32b91034b6b83632b6b2b73a32b960711b606082015260800190565b60008351611f3381846020880161198f565b835190830190611f4781836020880161198f565b01949350505050565b601f82111561053e57600081815260208120601f850160051c81016020861015611f775750805b601f850160051c820191505b81811015611f9657828155600101611f83565b505050505050565b815167ffffffffffffffff811115611fb857611fb8611a51565b611fcc81611fc68454611d64565b84611f50565b602080601f8311600181146120015760008415611fe95750858301515b600019600386901b1c1916600185901b178555611f96565b600085815260208120601f198616915b8281101561203057888601518255948401946001909101908401612011565b508582101561204e5787850151600019600388901b60f8161c191681555b5050505050600190811b01905550565b6001600160a01b0385811682528416602082015260408101839052608060608201819052600090612091908301846119b3565b9695505050505050565b6000602082840312156120ad57600080fd5b815161134a8161195c565b634e487b7160e01b600052603160045260246000fdfea2646970667358221220ffbd58d5ad69b28ef2efc703f75a71e19ce74586c59a5bc6744e26db0224cfc464736f6c634300081300334552433732313a207472616e7366657220746f206e6f6e204552433732315265",
    "sourcePath": "c:/Users/maike/Documents/Assignment/src/contracts/Y28.sol",
    "compiler": {
        "name": "solc",
        "version": "0.8.19+commit.7dd6d404"
    },
    "functionHashes": {
        "approve(address,uint256)": "095ea7b3",
        "balanceOf(address)": "70a08231",
        "checkAdmin(address)": "9026dee8",
        "getApproved(uint256)": "081812fc",
        "getNextId()": "bc968326",
        "isApprovedForAll(address,address)": "e985e9c5",
        "name()": "06fdde03",
        "owner()": "8da5cb5b",
        "ownerOf(uint256)": "6352211e",
        "renounceOwnership()": "715018a6",
        "requestLoan(uint256,uint256,uint256[][])": "178da21a",
        "safeMintAccessToken(address)": "2b77a3e7",
        "safeMintAdminAccessToken(address)": "63c48862",
        "safeTransferFrom(address,address,uint256)": "42842e0e",
        "safeTransferFrom(address,address,uint256,bytes)": "b88d4fde",
        "setApprovalForAll(address,bool)": "a22cb465",
        "supportsInterface(bytes4)": "01ffc9a7",
        "symbol()": "95d89b41",
        "tokenByIndex(uint256)": "4f6ccce7",
        "tokenOfOwnerByIndex(address,uint256)": "2f745c59",
        "tokenURI(uint256)": "c87b56dd",
        "totalSupply()": "18160ddd",
        "transferFrom(address,address,uint256)": "23b872dd",
        "transferOwnership(address)": "f2fde38b"
    },
    "gasEstimates": {
        "creation": {
            "codeDepositCost": "1690400",
            "executionCost": "infinite",
            "totalCost": "infinite"
        },
        "external": {
            "approve(address,uint256)": "infinite",
            "balanceOf(address)": "2634",
            "checkAdmin(address)": "5064",
            "getApproved(uint256)": "4792",
            "getNextId()": "2459",
            "isApprovedForAll(address,address)": "infinite",
            "name()": "infinite",
            "owner()": "2420",
            "ownerOf(uint256)": "2671",
            "renounceOwnership()": "infinite",
            "requestLoan(uint256,uint256,uint256[][])": "infinite",
            "safeMintAccessToken(address)": "infinite",
            "safeMintAdminAccessToken(address)": "infinite",
            "safeTransferFrom(address,address,uint256)": "infinite",
            "safeTransferFrom(address,address,uint256,bytes)": "infinite",
            "setApprovalForAll(address,bool)": "26705",
            "supportsInterface(bytes4)": "infinite",
            "symbol()": "infinite",
            "tokenByIndex(uint256)": "6826",
            "tokenOfOwnerByIndex(address,uint256)": "4997",
            "tokenURI(uint256)": "infinite",
            "totalSupply()": "2426",
            "transferFrom(address,address,uint256)": "infinite",
            "transferOwnership(address)": "28465"
        }
    }
}